S015000044494F5F4368616C6C656E67652E7372656351
S11300000C942A000C943C000C943C000C94C40105
S11300100C943C000C943C000C943C000C943C006C
S11300200C943C000C943C000C943C000C943C005C
S11300300C943C000C943C000C943C000C943C004C
S11300400C943C000C943C000C943C000C943C003C
S11300500C943C0011241FBECFE5D8E0DEBFCDBF19
S113006020E0A0E6B0E001C01D92A536B207E1F79A
S11300700E94BA010C941E040C940000813089F093
S113008028F08230C9F0833011F10895411105C080
S11300908AB3609568236ABB08958AB3682B6ABBE8
S11300A00895411105C087B36095682367BB08951F
S11300B087B3682B67BB0895411105C084B360956D
S11300C0682364BB089584B3682B64BB089541110D
S11300D005C081B36095682361BB089581B3682B23
S11300E061BB0895813089F028F08230C9F08330F3
S11300F011F108958BB3962F909589238BBB4423DC
S113010021F18BB3682B6BBB089588B3962F909520
S1130110892388BB4423C9F088B3682B68BB08953E
S113012085B3962F9095892385BB442371F085B3BD
S1130130682B65BB089582B3962F9095892382BB63
S1130140442319F082B3682B62BB0895AF92CF9217
S1130150DF92EF92FF920F931F93A12CC12CD12C0D
S1130160E12CF12C00E010E020E030E043E060E01E
S113017070EA80E00E943D028FB5826A8FBD8EB521
S113018080618EBD1DBC1CBC4FEF60E183E00E940A
S11301903E004FEF60E283E00E943E001F910F910A
S11301A0FF90EF90DF90CF90AF9008952F923F9201
S11301B04F925F926F927F928F929F92AF92BF9273
S11301C0CF92DF92EF92FF920F931F93CF93DF931F
S11301D0182F4A015B01DB01CA01880F991FAA1F6E
S11301E0BB1F880F991FAA1FBB1F880F991FAA1F27
S11301F0BB1F880F991FAA1FBB1F9C01AD01220FB3
S1130200331F441F551F220F331F441F551F60E027
S113021072E18AE790E00E94FC0369017A014424B8
S1130220582C692C7A2C072E7AE0880C991CAA1C6D
S1130230BB1C7A95D1F7702DC0E4D0E0312C212C71
S113024001E04FEF61E083E00E943E008FEFC816AB
S1130250D104E104F10419F110F1C034D10569F4B9
S113026060E072E18AE790E0A30192010E94FC033E
S113027069017A01C22DD02FE4CFC115D14009F014
S113028045C060E072E18AE790E0A50194010E9414
S1130290FC0369017A01C32D84E0D82FD2CFD7BCE7
S11302A0C6BC612F70E080E090E00E94030320E070
S11302B030E048EC52E40E9460024B015C01C7014B
S11302C0B6010E9401039B01AC01C501B4010E9467
S11302D08F030E94D2027BBD6ABD79BD68BDC03464
S11302E0D10521F48EB583608EBD31C0C115D140D6
S11302F049F48EB584608EBD4FEF61E083E00E94C7
S1130300720025C08EB584608EBD21C0D7BCC6BC2A
S1130310612F70E080E090E00E94030320E030E071
S113032048EC52E40E9460024B015C01C701B60133
S11303300E9401039B01AC01C501B4010E948F031B
S11303400E94D2027BBD6ABD79BD68BDDBCFDF915F
S1130350CF911F910F91FF90EF90DF90CF90BF90BE
S1130360AF909F908F907F906F905F904F903F9051
S11303702F9008950E94A60044E650E060E070E0EB
S113038086E40E94D600FFCF1F920F920FB60F9201
S113039011242F933F934F935F936F937F938F9386
S11303A09F93AF93BF93EF93FF93CF93DF931F92EA
S11303B0CDB7DEB783E089838981833061F40E94FD
S11303C027020E942E0282E00E9411020E942A0249
S11303D082E0898312C08981823079F40E942402E8
S11303E081E690E00E941B020E942E0283E00E949C
S11303F011020E942A0283E089830F90DF91CF913A
S1130400FF91EF91BF91AF919F918F917F916F91E8
S11304105F914F913F912F910F900FBE0F901F90BE
S11304201895823021F484B78F7B84BF089584B7F4
S1130430806484BF0895CF93DF93EC010E9432025D
S11304408883DF91CF9108950E943A0208950E9413
S1130450340208958BB780628BBF08958BB78F7D6C
S11304608BBF089582B7089593B780916000892B5C
S113047083BF089583B713BE0895AF92CF92DF92DE
S1130480EF92FF920F931F93EEB5FFB56E2B7F2B68
S1130490682B7FBD6EBD3DBD2CBD409364001BBD6C
S11304A00ABDF9BCE8BCD7BCC6BC89B7A82AA9BE9A
S11304B01F910F91FF90EF90DF90CF90AF90089530
S11304C00E9474020C9455030E944E0358F00E943B
S11304D0470340F029F45F3F29F00C943E03511187
S11304E00C9489030C9444030E94660368F39923D3
S11304F0B1F3552391F3951B550BBB27AA2762171C
S11305007307840738F09F5F5F4F220F331F441F28
S1130510AA1FA9F335D00E2E3AF0E0E832D091505C
S11305205040E695001CCAF72BD0FE2F29D0660F49
S1130530771F881FBB1F261737074807AB07B0E88C
S113054009F0BB0B802DBF01FF2793585F4F3AF092
S11305509E3F510578F00C943E030C9489035F3F51
S1130560E4F3983ED4F3869577956795B795F79518
S11305709F5FC9F7880F911D9695879597F9089500
S1130580E1E0660F771F881FBB1F6217730784079C
S1130590BA0720F0621B730B840BBA0BEE1F88F7AB
S11305A0E09508950E946E0388F09F5798F0B92F44
S11305B09927B751B0F0E1F0660F771F881F991F94
S11305C01AF0BA95C9F714C0B13091F00E948803AB
S11305D0B1E008950C948803672F782F8827B85FBB
S11305E039F0B93FCCF3869577956795B395D9F7EC
S11305F03EF490958095709561957F4F8F4F9F4FF6
S11306000895E89409C097FB3EF490958095709501
S113061061957F4F8F4F9F4F9923A9F0F92F96E94A
S1130620BB279395F695879577956795B795F111BF
S1130630F8CFFAF4BB0F11F460FF1BC06F5F7F4F5C
S11306408F4F9F4F16C0882311F096E911C077236E
S113065021F09EE8872F762F05C0662371F096E877
S1130660862F70E060E02AF09A95660F771F881F46
S1130670DAF7880F9695879597F9089597F99F6704
S113068080E870E060E008959FEF80EC0895002416
S11306900A941616170618060906089500240A94E3
S11306A012161306140605060895092E0394000C69
S11306B011F4882352F0BB0F40F4BF2B11F460FFF8
S11306C004C06F5F7F4F8F4F9F4F089557FD905821
S11306D0440F551F59F05F3F71F04795880F97FB02
S11306E0991F61F09F3F79F08795089512161306BC
S11306F01406551FF2CF4695F1DF08C016161706EB
S11307001806991FF1CF869571056105089408951F
S1130710E894BB2766277727CB0197F908950E94B1
S1130720A2030C9455030E94470338F00E944E0321
S113073020F0952311F00C943E030C9444031124EF
S11307400C9489030E94660370F3959FC1F3950F7F
S113075050E0551F629FF001729FBB27F00DB11D41
S1130760639FAA27F00DB11DAA1F649F6627B00DD1
S1130770A11D661F829F2227B00DA11D621F739FBA
S1130780B00DA11D621F839FA00D611D221F749FC8
S11307903327A00D611D231F849F600D211D822F0F
S11307A0762F6A2F11249F5750409AF0F1F0882336
S11307B04AF0EE0FFF1FBB1F661F771F881F915063
S11307C05040A9F79E3F510580F00C943E030C94D1
S11307D089035F3FE4F3983ED4F386957795679554
S11307E0B795F795E7959F5FC1F7FE2B880F911D8D
S11307F09695879597F90895A1E21A2EAA1BBB1B1B
S1130800FD010DC0AA1FBB1FEE1FFF1FA217B307D8
S1130810E407F50720F0A21BB30BE40BF50B661FEE
S1130820771F881F991F1A9469F7609570958095B2
S113083090959B01AC01BD01CF010895F894FFCFC1
S9030000FC
