S015000044494F5F4368616C6C656E67652E7372656351
S11300000C942A000C943C000C943C000C943C008E
S11300100C943C000C943C000C943C000C943C006C
S11300200C943C000C943C000C943C000C943C005C
S11300300C943C000C943C000C943C000C943C004C
S11300400C943C000C943C000C943C000C943C003C
S11300500C943C0011241FBECFE5D8E0DEBFCDBF19
S113006020E0A0E6B0E001C01D92A336B207E1F79C
S11300700E94DA000C942E030C940000813089F065
S113008028F08230C9F0833011F10895411105C080
S11300908AB3609568236ABB08958AB3682B6ABBE8
S11300A00895411105C087B36095682367BB08951F
S11300B087B3682B67BB0895411105C084B360956D
S11300C0682364BB089584B3682B64BB089541110D
S11300D005C081B36095682361BB089581B3682B23
S11300E061BB0895813089F028F08230C9F08330F3
S11300F011F108958BB3962F909589238BBB4423DC
S113010021F18BB3682B6BBB089588B3962F909520
S1130110892388BB4423C9F088B3682B68BB08953E
S113012085B3962F9095892385BB442371F085B3BD
S1130130682B65BB089582B3962F9095892382BB63
S1130140442319F082B3682B62BB0895813089F08F
S113015028F08230C9F0833011F108954FEF60E147
S113016081E00E943E0040E060E181E00E94720074
S113017008954FEF60E281E00E943E0040E060E2BB
S113018081E00E94720008954FEF60E481E00E94D4
S11301903E0040E060E481E00E94720008954FEF69
S11301A060E881E00E943E0040E060E881E00E9457
S11301B07200089580E00E94A60088B322E342E31F
S11301C060E10E942B01F9CFCF920F9395B5692B73
S11301D0682B65BD24BD883009F403BD40936100DC
S11301E089B7C82AC9BE0F91CF90089595B580915B
S11301F06100892B85BD08958F929F92AF92BF9223
S1130200CF92EF920F934B015C016894CC24C7F812
S1130210E12C0EE020E041E060E088E00E94E40090
S11302200E94F60081149104A104B10461F088B71E
S11302308770E9F388B7806888BF81E0881A9108DD
S1130240A108B108A1F70F91EF90CF90BF90AF90A4
S11302509F908F9008958F929F92AF92BF92CF926A
S1130260DF92EF92FF921F93CF93DF93182FD62F35
S1130270C42F622F70E080E090E00E9435029B0161
S1130280AC0160E070E080E89FE30E94920120E00E
S113029034E244E759E40E94C1020E9404026B0163
S11302A07C016C2F70E080E090E00E94350220E039
S11302B030E048EC52E40E9492014B015C01C7011A
S11302C0B6010E9433029B01AC01C501B4010E9436
S11302D0C1020E9404024B015C01C61AD70AE80A53
S11302E0F90AC4E14FEF6D2F812F0E947200C501FE
S11302F0B4010E94FC0040E06D2F812F0E94720027
S1130300C701B6010E94FC00C15061F7DF91CF9193
S11303101F91FF90EF90DF90CF90BF90AF909F9090
S11303208F9008950E94A6010C9487020E94800277
S113033058F00E94790240F029F45F3F29F00C94B0
S1130340700251110C94BB020C9476020E94980224
S113035068F39923B1F3552391F3951B550BBB27F0
S1130360AA2762177307840738F09F5F5F4F220F35
S1130370331F441FAA1FA9F335D00E2E3AF0E0E82C
S113038032D091505040E695001CCAF72BD0FE2F76
S113039029D0660F771F881FBB1F2617370748070A
S11303A0AB07B0E809F0BB0B802DBF01FF279358C2
S11303B05F4F3AF09E3F510578F00C9470020C9414
S11303C0BB025F3FE4F3983ED4F386957795679537
S11303D0B795F7959F5FC9F7880F911D96958795F7
S11303E097F90895E1E0660F771F881FBB1F621716
S11303F073078407BA0720F0621B730B840BBA0BD4
S1130400EE1F88F7E09508950E94A00288F09F5798
S113041098F0B92F9927B751B0F0E1F0660F771F24
S1130420881F991F1AF0BA95C9F714C0B13091F01A
S11304300E94BA02B1E008950C94BA02672F782F93
S11304408827B85F39F0B93FCCF3869577956795DF
S1130450B395D9F73EF490958095709561957F4F4B
S11304608F4F9F4F0895E89409C097FB3EF49095F1
S11304708095709561957F4F8F4F9F4F9923A9F079
S1130480F92F96E9BB279395F69587957795679508
S1130490B795F111F8CFFAF4BB0F11F460FF1BC04C
S11304A06F5F7F4F8F4F9F4F16C0882311F096E9DF
S11304B011C0772321F09EE8872F762F05C066238D
S11304C071F096E8862F70E060E02AF09A95660F46
S11304D0771F881FDAF7880F9695879597F90895FF
S11304E097F99F6780E870E060E008959FEF80ECE3
S11304F0089500240A941616170618060906089586
S113050000240A9412161306140605060895092EEB
S11305100394000C11F4882352F0BB0F40F4BF2B5A
S113052011F460FF04C06F5F7F4F8F4F9F4F08959A
S113053057FD9058440F551F59F05F3F71F0479590
S1130540880F97FB991F61F09F3F79F08795089575
S1130550121613061406551FF2CF4695F1DF08C094
S1130560161617061806991FF1CF869571056105B1
S113057008940895E894BB2766277727CB0197F959
S113058008950E94D4020C9487020E94790238F0E4
S11305900E94800220F0952311F00C9470020C94B8
S11305A0760211240C94BB020E94980270F3959F6A
S11305B0C1F3950F50E0551F629FF001729FBB2756
S11305C0F00DB11D639FAA27F00DB11DAA1F649FF2
S11305D06627B00DA11D661F829F2227B00DA11DA5
S11305E0621F739FB00DA11D621F839FA00D611D2B
S11305F0221F749F3327A00D611D231F849F600D4C
S1130600211D822F762F6A2F11249F5750409AF074
S1130610F1F088234AF0EE0FFF1FBB1F661F771F00
S1130620881F91505040A9F79E3F510580F00C94CB
S113063070020C94BB025F3FE4F3983ED4F38695BA
S113064077956795B795F795E7959F5FC1F7FE2B6B
S1130650880F911D9695879597F90895F894FFCF83
S9030000FC
